{
  "contractName": "Migrations",
  "abi": [
    {
      "constant": true,
      "inputs": [],
      "name": "last_completed_migration",
      "outputs": [
        {
          "name": "",
          "type": "uint256"
        }
      ],
      "payable": false,
      "stateMutability": "view",
      "type": "function"
    },
    {
      "constant": true,
      "inputs": [],
      "name": "owner",
      "outputs": [
        {
          "name": "",
          "type": "address"
        }
      ],
      "payable": false,
      "stateMutability": "view",
      "type": "function"
    },
    {
      "inputs": [],
      "payable": false,
      "stateMutability": "nonpayable",
      "type": "constructor"
    },
    {
      "constant": false,
      "inputs": [
        {
          "name": "completed",
          "type": "uint256"
        }
      ],
      "name": "setCompleted",
      "outputs": [],
      "payable": false,
      "stateMutability": "nonpayable",
      "type": "function"
    },
    {
      "constant": false,
      "inputs": [
        {
          "name": "new_address",
          "type": "address"
        }
      ],
      "name": "upgrade",
      "outputs": [],
      "payable": false,
      "stateMutability": "nonpayable",
      "type": "function"
    }
  ],
  "bytecode": "0x608060405234801561001057600080fd5b50336000806101000a81548173ffffffffffffffffffffffffffffffffffffffff021916908373ffffffffffffffffffffffffffffffffffffffff160217905550610314806100606000396000f3fe608060405260043610610062576000357c0100000000000000000000000000000000000000000000000000000000900463ffffffff1680630900f01014610067578063445df0ac146100b85780638da5cb5b146100e3578063fdacd5761461013a575b600080fd5b34801561007357600080fd5b506100b66004803603602081101561008a57600080fd5b81019080803573ffffffffffffffffffffffffffffffffffffffff169060200190929190505050610175565b005b3480156100c457600080fd5b506100cd61025d565b6040518082815260200191505060405180910390f35b3480156100ef57600080fd5b506100f8610263565b604051808273ffffffffffffffffffffffffffffffffffffffff1673ffffffffffffffffffffffffffffffffffffffff16815260200191505060405180910390f35b34801561014657600080fd5b506101736004803603602081101561015d57600080fd5b8101908080359060200190929190505050610288565b005b6000809054906101000a900473ffffffffffffffffffffffffffffffffffffffff1673ffffffffffffffffffffffffffffffffffffffff163373ffffffffffffffffffffffffffffffffffffffff16141561025a5760008190508073ffffffffffffffffffffffffffffffffffffffff1663fdacd5766001546040518263ffffffff167c010000000000000000000000000000000000000000000000000000000002815260040180828152602001915050600060405180830381600087803b15801561024057600080fd5b505af1158015610254573d6000803e3d6000fd5b50505050505b50565b60015481565b6000809054906101000a900473ffffffffffffffffffffffffffffffffffffffff1681565b6000809054906101000a900473ffffffffffffffffffffffffffffffffffffffff1673ffffffffffffffffffffffffffffffffffffffff163373ffffffffffffffffffffffffffffffffffffffff1614156102e557806001819055505b5056fea165627a7a72305820bbc33b38bee24d1b388f5fab1f310f065816986b74e4272299c9cf666f1628c40029",
  "source": "pragma solidity >=0.4.21 <0.6.0;\n\n/* \nМиграция -- файл JavaScript, который отвечает за развёртывание контрактов внутри сети эфира\nФайл создаётся при вызове команды \"truffle init\". \n Truffle требует, чтобы в проекте присутствовал контракт Migrations, который отслеживает\n какие миграции были выполнены в текущей сети и затем отправляет их в сеть эфира.\nДанный код был сгенерирован автоматически, это типичный шаблон для большинства проектов.\n*/\ncontract Migrations { // Контракт (КЛАСС) Migrations\n  address public owner; // Владелец (свойство)\n  uint public last_completed_migration; // Последняя завершённая миграция (свойство)\n\n  constructor() public { // Конструктор, который инициализирует свойство \"Владелец\" при деплое контракта\n    owner = msg.sender;\n  }\n\n  modifier restricted() { // модификатор, который проверяет условие,\n  // что владелец контракта совпадает с тем, кто вызывает что-либо\n  // если условие модификатора выполнено не будет, в выполнении ф-ции (или другой инструкции) будет отказано\n    if (msg.sender == owner) _;\n  }\n\n  function setCompleted(uint completed) public restricted { // Установить миграцию завершённой\n    last_completed_migration = completed;\n  }\n\n  function upgrade(address new_address) public restricted { // Создать новую миграцию\n    Migrations upgraded = Migrations(new_address);\n    upgraded.setCompleted(last_completed_migration);\n  }\n}\n",
  "sourcePath": "D:/Studying/CScience/LABWORK/onlineshop/src/contracts/Migrations.sol",
  "compiler": {
    "name": "solc",
    "version": "0.5.0+commit.1d4f565a.Emscripten.clang"
  },
  "schemaVersion": "3.0.2",
  "updatedAt": "2020-03-19T11:05:20.314Z",
  "devdoc": {
    "methods": {}
  },
  "userdoc": {
    "methods": {}
  }
}